{
  "transactions": [
    {
      "hash": "0xc9f3d841d9de6dd2aed23caf22175bae06851d3f2decb6d8a1f7e7c8f0c33809",
      "transactionType": "CALL",
      "contractName": "TankGame",
      "contractAddress": "0x36ac646A9f55F59A04885b814E2A4Af58D74b906",
      "function": "init((uint256,uint256,uint256,uint8,uint256,(uint256,uint256,uint256,uint256,uint256,uint256,uint256,uint256,uint256),((address,uint256,uint256,uint256),(uint256,uint256),uint256)[],uint256[]))",
      "arguments": [
        "(10, 4, 208023150350000000, 1, 117210, (10, 40, 1, 3, 3, 3, 3, 14400, 0), [((0x5337122c6b5ce24D970Ce771510D22Aeaf038C44, 1, 2, 3), (8, 30), 1), ((0x5CE306109b8de8d001d52F2140383A54AB55CdB2, 0, 0, 5), (28, 11), 2), ((0xb7430de9B4D8e5cDB951019d7651cD5fda630498, 0, 5, 6), (24, 5), 3), ((0xDC40CbF86727093c52582405703e5b97D5C64B66, 2, 2, 8), (36, 16), 4), ((0x2a233E71Ba12fE39E587D402Acf4E41e8B008e31, 0, 1, 3), (1, 32), 5), ((0x859B7FA9b70746720bdeA1453D04161F3C829684, 0, 1, 3), (11, 0), 6), ((0x425374B4da782f0ec5DeC7b45B0C1e08dc6B5A65, 0, 0, 4), (32, 16), 7), ((0x2CB8636240693B445ac98F2091b58A898e35e60B, 0, 0, 4), (33, 16), 8), ((0xACAF2B49C521C83d80bFE5876A8e2418c99dc435, 2, 0, 4), (5, 17), 9), ((0xE0E9A1807802a32544570832Fe5a21Ea09500872, 3, 0, 4), (12, 32), 10)], [117244, 117244, 117237, 117244, 117231, 117226, 117238, 117237, 117242, 117244])"
      ],
      "transaction": {
        "type": "0x02",
        "from": "0x3c5cd6c3a8f47443f739597a89a630868f805e2e",
        "to": "0x36ac646a9f55f59a04885b814e2a4af58d74b906",
        "gas": "0x2be39d",
        "value": "0x0",
        "data": "0x597744230000000000000000000000000000000000000000000000000000000000000020000000000000000000000000000000000000000000000000000000000000000a000000000000000000000000000000000000000000000000000000000000000400000000000000000000000000000000000000000000000002e30bf3fdab5f800000000000000000000000000000000000000000000000000000000000000001000000000000000000000000000000000000000000000000000000000001c9da000000000000000000000000000000000000000000000000000000000000000a0000000000000000000000000000000000000000000000000000000000000028000000000000000000000000000000000000000000000000000000000000000100000000000000000000000000000000000000000000000000000000000000030000000000000000000000000000000000000000000000000000000000000003000000000000000000000000000000000000000000000000000000000000000300000000000000000000000000000000000000000000000000000000000000030000000000000000000000000000000000000000000000000000000000003840000000000000000000000000000000000000000000000000000000000000000000000000000000000000000000000000000000000000000000000000000002000000000000000000000000000000000000000000000000000000000000000ae0000000000000000000000000000000000000000000000000000000000000000a0000000000000000000000005337122c6b5ce24d970ce771510d22aeaf038c440000000000000000000000000000000000000000000000000000000000000001000000000000000000000000000000000000000000000000000000000000000200000000000000000000000000000000000000000000000000000000000000030000000000000000000000000000000000000000000000000000000000000008000000000000000000000000000000000000000000000000000000000000001e00000000000000000000000000000000000000000000000000000000000000010000000000000000000000005ce306109b8de8d001d52f2140383a54ab55cdb2000000000000000000000000000000000000000000000000000000000000000000000000000000000000000000000000000000000000000000000000000000000000000000000000000000000000000000000000000000000000000000000005000000000000000000000000000000000000000000000000000000000000001c000000000000000000000000000000000000000000000000000000000000000b0000000000000000000000000000000000000000000000000000000000000002000000000000000000000000b7430de9b4d8e5cdb951019d7651cd5fda630498000000000000000000000000000000000000000000000000000000000000000000000000000000000000000000000000000000000000000000000000000000050000000000000000000000000000000000000000000000000000000000000006000000000000000000000000000000000000000000000000000000000000001800000000000000000000000000000000000000000000000000000000000000050000000000000000000000000000000000000000000000000000000000000003000000000000000000000000dc40cbf86727093c52582405703e5b97d5c64b660000000000000000000000000000000000000000000000000000000000000002000000000000000000000000000000000000000000000000000000000000000200000000000000000000000000000000000000000000000000000000000000080000000000000000000000000000000000000000000000000000000000000024000000000000000000000000000000000000000000000000000000000000001000000000000000000000000000000000000000000000000000000000000000040000000000000000000000002a233e71ba12fe39e587d402acf4e41e8b008e31000000000000000000000000000000000000000000000000000000000000000000000000000000000000000000000000000000000000000000000000000000010000000000000000000000000000000000000000000000000000000000000003000000000000000000000000000000000000000000000000000000000000000100000000000000000000000000000000000000000000000000000000000000200000000000000000000000000000000000000000000000000000000000000005000000000000000000000000859b7fa9b70746720bdea1453d04161f3c829684000000000000000000000000000000000000000000000000000000000000000000000000000000000000000000000000000000000000000000000000000000010000000000000000000000000000000000000000000000000000000000000003000000000000000000000000000000000000000000000000000000000000000b00000000000000000000000000000000000000000000000000000000000000000000000000000000000000000000000000000000000000000000000000000006000000000000000000000000425374b4da782f0ec5dec7b45b0c1e08dc6b5a650000000000000000000000000000000000000000000000000000000000000000000000000000000000000000000000000000000000000000000000000000000000000000000000000000000000000000000000000000000000000000000000040000000000000000000000000000000000000000000000000000000000000020000000000000000000000000000000000000000000000000000000000000001000000000000000000000000000000000000000000000000000000000000000070000000000000000000000002cb8636240693b445ac98f2091b58a898e35e60b000000000000000000000000000000000000000000000000000000000000000000000000000000000000000000000000000000000000000000000000000000000000000000000000000000000000000000000000000000000000000000000004000000000000000000000000000000000000000000000000000000000000002100000000000000000000000000000000000000000000000000000000000000100000000000000000000000000000000000000000000000000000000000000008000000000000000000000000acaf2b49c521c83d80bfe5876a8e2418c99dc435000000000000000000000000000000000000000000000000000000000000000200000000000000000000000000000000000000000000000000000000000000000000000000000000000000000000000000000000000000000000000000000004000000000000000000000000000000000000000000000000000000000000000500000000000000000000000000000000000000000000000000000000000000110000000000000000000000000000000000000000000000000000000000000009000000000000000000000000e0e9a1807802a32544570832fe5a21ea09500872000000000000000000000000000000000000000000000000000000000000000300000000000000000000000000000000000000000000000000000000000000000000000000000000000000000000000000000000000000000000000000000004000000000000000000000000000000000000000000000000000000000000000c0000000000000000000000000000000000000000000000000000000000000020000000000000000000000000000000000000000000000000000000000000000a000000000000000000000000000000000000000000000000000000000000000a000000000000000000000000000000000000000000000000000000000001c9fc000000000000000000000000000000000000000000000000000000000001c9fc000000000000000000000000000000000000000000000000000000000001c9f5000000000000000000000000000000000000000000000000000000000001c9fc000000000000000000000000000000000000000000000000000000000001c9ef000000000000000000000000000000000000000000000000000000000001c9ea000000000000000000000000000000000000000000000000000000000001c9f6000000000000000000000000000000000000000000000000000000000001c9f5000000000000000000000000000000000000000000000000000000000001c9fa000000000000000000000000000000000000000000000000000000000001c9fc",
        "nonce": "0x2",
        "accessList": []
      },
      "additionalContracts": [],
      "isFixedGasLimit": false
    }
  ],
  "receipts": [
    {
      "transactionHash": "0xc9f3d841d9de6dd2aed23caf22175bae06851d3f2decb6d8a1f7e7c8f0c33809",
      "transactionIndex": "0x4",
      "blockHash": "0x9a61234045392956001ffb244c2adc1a6254c0f5a0d30f62063a063f9f36f8f1",
      "blockNumber": "0x8d9426",
      "from": "0x3c5CD6c3A8f47443f739597A89A630868F805e2e",
      "to": "0x36ac646A9f55F59A04885b814E2A4Af58D74b906",
      "cumulativeGasUsed": "0x2f087d",
      "gasUsed": "0x1e0279",
      "contractAddress": null,
      "logs": [],
      "status": "0x1",
      "logsBloom": "0x00000000000000000000000000000000000000000000000000000000000000000000000000000000000000000000000000000000000000000000000000000000000000000000000000000000000000000000000000000000000000000000000000000000000000000000000000000000000000000000000000000000000000000000000000000000000000000000000000000000000000000000000000000000000000000000000000000000000000000000000000000000000000000000000000000000000000000000000000000000000000000000000000000000000000000000000000000000000000000000000000000000000000000000000000000000",
      "type": "0x2",
      "effectiveGasPrice": "0xb2d05e5c"
    }
  ],
  "libraries": [],
  "pending": [],
  "returns": {},
  "timestamp": 1688316494,
  "chain": 5,
  "multi": false,
  "commit": "fbae671"
}